:020000020000FC
:0200000028C016
:0200100075C0B9
:1000400047C0C0F9A4B0999282F880908883C6A175
:10005000868E00E80093610004E0009361000FEFDA
:100060000DBF08E00EBFF0E0E2E404910BB90FEF22
:100070000AB904B900E00BB905B900E207B90FE10C
:1000800008B9F0E0E2E404910BB900E00093C1008C
:100090001FEF20E070E060E02BB965B920E0F0E0F0
:1000A000E2E404910BB90E9459000E946100789427
:1000B000FFCF03E005BD0CE306BD01E000936E0039
:1000C000089502E00093680003E000936C00089537
:1000D0000F930FB70F931F9304E606BD7395743605
:1000E00041F4772723952F70F0E0E2E4E20F0491CA
:1000F0000BB91F910F910FBF0F9118950F930FB769
:100100000F931F9306B1102F132769F00E94A000D0
:1001100006B1102F132739F011FD0E94980010FD31
:100120000E949C00302F1F910F910FBF0F911895C7
:1001300063956F7065B908956A956F7065B9089594
:100140003FEF3A953030E9F73FEF3A953030E9F735
:0A0150003FEF3A953030E9F70895CB
:00000001FF
